:020000040800F2
:1000000000500020E50100082D0200082D02000824
:100010002D0200082D0200082D020008000000003B
:100020000000000000000000000000002D02000899
:100030002D020008000000002D0200082D0200081B
:100040002D0200082D0200082D0200082D020008D4
:100050002D0200082D0200082D0200082D020008C4
:100060002D0200082D0200082D0200082D020008B4
:100070002D0200082D0200082D0200082D020008A4
:100080002D0200082D0200082D0200082D02000894
:100090002D0200082D0200082D0200082D02000884
:1000A0002D0200082D0200082D0200082D02000874
:1000B0002D0200082D0200082D0200082D02000864
:1000C0002D0200082D0200082D0200082D02000854
:1000D0002D0200082D0200082D0200082D02000844
:1000E0002D0200082D0200082D020008000000006B
:1000F0000000000000000000000000000000000000
:0C01000000000000000000005FF808F1A3
:10010C000348044B834202D0034B03B1184770479A
:10011C000000002000000020000000000548064BF5
:10012C001B1AD90F01EBA301491002D0034B03B1E9
:10013C00184770470000002000000020000000005D
:10014C0010B5064C237843B9FFF7DAFF044B13B113
:10015C000448AFF300800123237010BD0000002081
:10016C00000000007802000808B5044B1BB10449DC
:10017C000448AFF30080BDE80840CFE70000000062
:10018C00040000207802000870B50F4B0F4DAB42F5
:10019C00A3EB050607D00024B61055F8043B013438
:1001AC009847A642F9D800F061F8094D094B5E1B3F
:1001BC00AB424FEAA60606D0002455F8043B0134A6
:1001CC009847A642F9D870BD90020008900200082A
:1001DC00900200089402000800F023F80B480C4928
:1001EC000C4A002302E0D458C4500433C4188C4287
:1001FC00F9D3094A094C002301E013600432A242EE
:10020C00FBD3FFF7C1FF00F00DF870470000002092
:10021C000000002098020008000000201C000020B4
:10022C00FEE7704782B00E4A936943F01003936166
:10023C000C4B5A6822F0F0025A605A6842F01002D5
:10024C005A60084AD36883F40053D36000230193A7
:10025C00019A054B9A42F4D8019B01330193F7E7BD
:10026C0000100240001001407F841E00F8B500BF52
:10027C00F8BC08BC9E467047F8B500BFF8BC08BC7B
:04028C009E467047D3
:0402900075010008EC
:040294004D01000810
:04000005080001E509
:00000001FF
